{
  "contractName": "Fundraiser",
  "abi": [
    {
      "inputs": [
        {
          "internalType": "string",
          "name": "_name",
          "type": "string"
        },
        {
          "internalType": "string",
          "name": "_website",
          "type": "string"
        },
        {
          "internalType": "string",
          "name": "_imageUrl",
          "type": "string"
        },
        {
          "internalType": "string",
          "name": "_description",
          "type": "string"
        },
        {
          "internalType": "address payable",
          "name": "_beneficiary",
          "type": "address"
        },
        {
          "internalType": "address",
          "name": "_custodian",
          "type": "address"
        }
      ],
      "stateMutability": "nonpayable",
      "type": "constructor"
    },
    {
      "anonymous": false,
      "inputs": [
        {
          "indexed": true,
          "internalType": "address",
          "name": "donor",
          "type": "address"
        },
        {
          "indexed": false,
          "internalType": "uint256",
          "name": "value",
          "type": "uint256"
        }
      ],
      "name": "DonationReceived",
      "type": "event"
    },
    {
      "anonymous": false,
      "inputs": [
        {
          "indexed": true,
          "internalType": "address",
          "name": "previousOwner",
          "type": "address"
        },
        {
          "indexed": true,
          "internalType": "address",
          "name": "newOwner",
          "type": "address"
        }
      ],
      "name": "OwnershipTransferred",
      "type": "event"
    },
    {
      "anonymous": false,
      "inputs": [
        {
          "indexed": false,
          "internalType": "uint256",
          "name": "amount",
          "type": "uint256"
        }
      ],
      "name": "Withdraw",
      "type": "event"
    },
    {
      "stateMutability": "payable",
      "type": "fallback"
    },
    {
      "inputs": [],
      "name": "beneficiary",
      "outputs": [
        {
          "internalType": "address payable",
          "name": "",
          "type": "address"
        }
      ],
      "stateMutability": "view",
      "type": "function"
    },
    {
      "inputs": [],
      "name": "custodian",
      "outputs": [
        {
          "internalType": "address",
          "name": "",
          "type": "address"
        }
      ],
      "stateMutability": "view",
      "type": "function"
    },
    {
      "inputs": [],
      "name": "description",
      "outputs": [
        {
          "internalType": "string",
          "name": "",
          "type": "string"
        }
      ],
      "stateMutability": "view",
      "type": "function"
    },
    {
      "inputs": [],
      "name": "donationsCount",
      "outputs": [
        {
          "internalType": "uint256",
          "name": "",
          "type": "uint256"
        }
      ],
      "stateMutability": "view",
      "type": "function"
    },
    {
      "inputs": [],
      "name": "imageUrl",
      "outputs": [
        {
          "internalType": "string",
          "name": "",
          "type": "string"
        }
      ],
      "stateMutability": "view",
      "type": "function"
    },
    {
      "inputs": [],
      "name": "name",
      "outputs": [
        {
          "internalType": "string",
          "name": "",
          "type": "string"
        }
      ],
      "stateMutability": "view",
      "type": "function"
    },
    {
      "inputs": [],
      "name": "owner",
      "outputs": [
        {
          "internalType": "address",
          "name": "",
          "type": "address"
        }
      ],
      "stateMutability": "view",
      "type": "function"
    },
    {
      "inputs": [],
      "name": "renounceOwnership",
      "outputs": [],
      "stateMutability": "nonpayable",
      "type": "function"
    },
    {
      "inputs": [],
      "name": "totalDonations",
      "outputs": [
        {
          "internalType": "uint256",
          "name": "",
          "type": "uint256"
        }
      ],
      "stateMutability": "view",
      "type": "function"
    },
    {
      "inputs": [
        {
          "internalType": "address",
          "name": "newOwner",
          "type": "address"
        }
      ],
      "name": "transferOwnership",
      "outputs": [],
      "stateMutability": "nonpayable",
      "type": "function"
    },
    {
      "inputs": [],
      "name": "website",
      "outputs": [
        {
          "internalType": "string",
          "name": "",
          "type": "string"
        }
      ],
      "stateMutability": "view",
      "type": "function"
    },
    {
      "stateMutability": "payable",
      "type": "receive"
    },
    {
      "inputs": [
        {
          "internalType": "address payable",
          "name": "_beneficiary",
          "type": "address"
        }
      ],
      "name": "setBeneficiary",
      "outputs": [],
      "stateMutability": "nonpayable",
      "type": "function"
    },
    {
      "inputs": [],
      "name": "myDonationsCount",
      "outputs": [
        {
          "internalType": "uint256",
          "name": "",
          "type": "uint256"
        }
      ],
      "stateMutability": "view",
      "type": "function"
    },
    {
      "inputs": [],
      "name": "donate",
      "outputs": [],
      "stateMutability": "payable",
      "type": "function"
    },
    {
      "inputs": [],
      "name": "myDonations",
      "outputs": [
        {
          "internalType": "uint256[]",
          "name": "values",
          "type": "uint256[]"
        },
        {
          "internalType": "uint256[]",
          "name": "dates",
          "type": "uint256[]"
        }
      ],
      "stateMutability": "view",
      "type": "function"
    },
    {
      "inputs": [],
      "name": "withdraw",
      "outputs": [],
      "stateMutability": "nonpayable",
      "type": "function"
    }
  ],
  "bytecode": "0x60806040523480156200001157600080fd5b50604051620019fb380380620019fb8339818101604052810190620000379190620004dc565b620000576200004b6200011960201b60201c565b6200012160201b60201c565b85600190805190602001906200006f929190620001e5565b50846002908051906020019062000088929190620001e5565b508360039080519060200190620000a1929190620001e5565b508260049080519060200190620000ba929190620001e5565b5081600760006101000a81548173ffffffffffffffffffffffffffffffffffffffff021916908373ffffffffffffffffffffffffffffffffffffffff1602179055506200010d816200012160201b60201c565b50505050505062000658565b600033905090565b60008060009054906101000a900473ffffffffffffffffffffffffffffffffffffffff169050816000806101000a81548173ffffffffffffffffffffffffffffffffffffffff021916908373ffffffffffffffffffffffffffffffffffffffff1602179055508173ffffffffffffffffffffffffffffffffffffffff168173ffffffffffffffffffffffffffffffffffffffff167f8be0079c531659141344cd1fd0a4f28419497f9722a3daafe3b4186f6b6457e060405160405180910390a35050565b828054620001f39062000623565b90600052602060002090601f01602090048101928262000217576000855562000263565b82601f106200023257805160ff191683800117855562000263565b8280016001018555821562000263579182015b828111156200026257825182559160200191906001019062000245565b5b50905062000272919062000276565b5090565b5b808211156200029157600081600090555060010162000277565b5090565b6000604051905090565b600080fd5b600080fd5b600080fd5b600080fd5b6000601f19601f8301169050919050565b7f4e487b7100000000000000000000000000000000000000000000000000000000600052604160045260246000fd5b620002fe82620002b3565b810181811067ffffffffffffffff8211171562000320576200031f620002c4565b5b80604052505050565b60006200033562000295565b9050620003438282620002f3565b919050565b600067ffffffffffffffff821115620003665762000365620002c4565b5b6200037182620002b3565b9050602081019050919050565b60005b838110156200039e57808201518184015260208101905062000381565b83811115620003ae576000848401525b50505050565b6000620003cb620003c58462000348565b62000329565b905082815260208101848484011115620003ea57620003e9620002ae565b5b620003f78482856200037e565b509392505050565b600082601f830112620004175762000416620002a9565b5b815162000429848260208601620003b4565b91505092915050565b600073ffffffffffffffffffffffffffffffffffffffff82169050919050565b60006200045f8262000432565b9050919050565b620004718162000452565b81146200047d57600080fd5b50565b600081519050620004918162000466565b92915050565b6000620004a48262000432565b9050919050565b620004b68162000497565b8114620004c257600080fd5b50565b600081519050620004d681620004ab565b92915050565b60008060008060008060c08789031215620004fc57620004fb6200029f565b5b600087015167ffffffffffffffff8111156200051d576200051c620002a4565b5b6200052b89828a01620003ff565b965050602087015167ffffffffffffffff8111156200054f576200054e620002a4565b5b6200055d89828a01620003ff565b955050604087015167ffffffffffffffff811115620005815762000580620002a4565b5b6200058f89828a01620003ff565b945050606087015167ffffffffffffffff811115620005b357620005b2620002a4565b5b620005c189828a01620003ff565b9350506080620005d489828a0162000480565b92505060a0620005e789828a01620004c5565b9150509295509295509295565b7f4e487b7100000000000000000000000000000000000000000000000000000000600052602260045260246000fd5b600060028204905060018216806200063c57607f821691505b602082108103620006525762000651620005f4565b5b50919050565b61139380620006686000396000f3fe6080604052600436106100f75760003560e01c8063715018a61161008a578063beb0a41611610059578063beb0a4161461033f578063de2ed8931461036a578063ed88c68e14610395578063f2fde38b1461039f57610130565b8063715018a6146102a75780637284e416146102be5780638da5cb5b146102e9578063aba831501461031457610130565b80631f522595116100c65780631f5225951461020f578063375b74c31461023a57806338af3eed146102655780633ccfd60b1461029057610130565b80630180b97c1461016457806306fdde031461018f5780631a57f7b4146101ba5780631c31f710146101e657610130565b3661013057610111346005546103c890919063ffffffff16565b6005819055506006600081548092919061012a90610dda565b91905055005b610145346005546103c890919063ffffffff16565b6005819055506006600081548092919061015e90610dda565b91905055005b34801561017057600080fd5b506101796103de565b6040516101869190610e31565b60405180910390f35b34801561019b57600080fd5b506101a4610428565b6040516101b19190610ee5565b60405180910390f35b3480156101c657600080fd5b506101cf6104b6565b6040516101dd929190610fc5565b60405180910390f35b3480156101f257600080fd5b5061020d6004803603810190610208919061105f565b61062b565b005b34801561021b57600080fd5b506102246106eb565b6040516102319190610e31565b60405180910390f35b34801561024657600080fd5b5061024f6106f1565b60405161025c91906110ad565b60405180910390f35b34801561027157600080fd5b5061027a610717565b60405161028791906110d7565b60405180910390f35b34801561029c57600080fd5b506102a561073d565b005b3480156102b357600080fd5b506102bc610861565b005b3480156102ca57600080fd5b506102d36108e9565b6040516102e09190610ee5565b60405180910390f35b3480156102f557600080fd5b506102fe610977565b60405161030b91906110ad565b60405180910390f35b34801561032057600080fd5b506103296109a0565b6040516103369190610ee5565b60405180910390f35b34801561034b57600080fd5b50610354610a2e565b6040516103619190610ee5565b60405180910390f35b34801561037657600080fd5b5061037f610abc565b60405161038c9190610e31565b60405180910390f35b61039d610ac2565b005b3480156103ab57600080fd5b506103c660048036038101906103c1919061111e565b610bde565b005b600081836103d6919061114b565b905092915050565b6000600960003373ffffffffffffffffffffffffffffffffffffffff1673ffffffffffffffffffffffffffffffffffffffff16815260200190815260200160002080549050905090565b60018054610435906111d0565b80601f0160208091040260200160405190810160405280929190818152602001828054610461906111d0565b80156104ae5780601f10610483576101008083540402835291602001916104ae565b820191906000526020600020905b81548152906001019060200180831161049157829003601f168201915b505050505081565b60608060006104c36103de565b90508067ffffffffffffffff8111156104df576104de611201565b5b60405190808252806020026020018201604052801561050d5781602001602082028036833780820191505090505b5092508067ffffffffffffffff81111561052a57610529611201565b5b6040519080825280602002602001820160405280156105585781602001602082028036833780820191505090505b50915060005b81811015610625576000600960003373ffffffffffffffffffffffffffffffffffffffff1673ffffffffffffffffffffffffffffffffffffffff16815260200190815260200160002082815481106105b9576105b8611230565b5b9060005260206000209060020201905080600001548583815181106105e1576105e0611230565b5b602002602001018181525050806001015484838151811061060557610604611230565b5b60200260200101818152505050808061061d90610dda565b91505061055e565b50509091565b610633610cd5565b73ffffffffffffffffffffffffffffffffffffffff16610651610977565b73ffffffffffffffffffffffffffffffffffffffff16146106a7576040517f08c379a000000000000000000000000000000000000000000000000000000000815260040161069e906112ab565b60405180910390fd5b80600760006101000a81548173ffffffffffffffffffffffffffffffffffffffff021916908373ffffffffffffffffffffffffffffffffffffffff16021790555050565b60065481565b600860009054906101000a900473ffffffffffffffffffffffffffffffffffffffff1681565b600760009054906101000a900473ffffffffffffffffffffffffffffffffffffffff1681565b610745610cd5565b73ffffffffffffffffffffffffffffffffffffffff16610763610977565b73ffffffffffffffffffffffffffffffffffffffff16146107b9576040517f08c379a00000000000000000000000000000000000000000000000000000000081526004016107b0906112ab565b60405180910390fd5b6000479050600760009054906101000a900473ffffffffffffffffffffffffffffffffffffffff1673ffffffffffffffffffffffffffffffffffffffff166108fc829081150290604051600060405180830381858888f19350505050158015610826573d6000803e3d6000fd5b507f5b6b431d4476a211bb7d41c20d1aab9ae2321deee0d20be3d9fc9b1093fa6e3d816040516108569190610e31565b60405180910390a150565b610869610cd5565b73ffffffffffffffffffffffffffffffffffffffff16610887610977565b73ffffffffffffffffffffffffffffffffffffffff16146108dd576040517f08c379a00000000000000000000000000000000000000000000000000000000081526004016108d4906112ab565b60405180910390fd5b6108e76000610cdd565b565b600480546108f6906111d0565b80601f0160208091040260200160405190810160405280929190818152602001828054610922906111d0565b801561096f5780601f106109445761010080835404028352916020019161096f565b820191906000526020600020905b81548152906001019060200180831161095257829003601f168201915b505050505081565b60008060009054906101000a900473ffffffffffffffffffffffffffffffffffffffff16905090565b600380546109ad906111d0565b80601f01602080910402602001604051908101604052809291908181526020018280546109d9906111d0565b8015610a265780601f106109fb57610100808354040283529160200191610a26565b820191906000526020600020905b815481529060010190602001808311610a0957829003601f168201915b505050505081565b60028054610a3b906111d0565b80601f0160208091040260200160405190810160405280929190818152602001828054610a67906111d0565b8015610ab45780601f10610a8957610100808354040283529160200191610ab4565b820191906000526020600020905b815481529060010190602001808311610a9757829003601f168201915b505050505081565b60055481565b60006040518060400160405280348152602001428152509050600960003373ffffffffffffffffffffffffffffffffffffffff1673ffffffffffffffffffffffffffffffffffffffff16815260200190815260200160002081908060018154018082558091505060019003906000526020600020906002020160009091909190915060008201518160000155602082015181600101555050610b6f346005546103c890919063ffffffff16565b60058190555060066000815480929190610b8890610dda565b91905055503373ffffffffffffffffffffffffffffffffffffffff167f264f630d9efa0d07053a31163641d9fcc0adafc9d9e76f1c37c2ce3a558d2c5234604051610bd39190610e31565b60405180910390a250565b610be6610cd5565b73ffffffffffffffffffffffffffffffffffffffff16610c04610977565b73ffffffffffffffffffffffffffffffffffffffff1614610c5a576040517f08c379a0000000000000000000000000000000000000000000000000000000008152600401610c51906112ab565b60405180910390fd5b600073ffffffffffffffffffffffffffffffffffffffff168173ffffffffffffffffffffffffffffffffffffffff1603610cc9576040517f08c379a0000000000000000000000000000000000000000000000000000000008152600401610cc09061133d565b60405180910390fd5b610cd281610cdd565b50565b600033905090565b60008060009054906101000a900473ffffffffffffffffffffffffffffffffffffffff169050816000806101000a81548173ffffffffffffffffffffffffffffffffffffffff021916908373ffffffffffffffffffffffffffffffffffffffff1602179055508173ffffffffffffffffffffffffffffffffffffffff168173ffffffffffffffffffffffffffffffffffffffff167f8be0079c531659141344cd1fd0a4f28419497f9722a3daafe3b4186f6b6457e060405160405180910390a35050565b7f4e487b7100000000000000000000000000000000000000000000000000000000600052601160045260246000fd5b6000819050919050565b6000610de582610dd0565b91507fffffffffffffffffffffffffffffffffffffffffffffffffffffffffffffffff8203610e1757610e16610da1565b5b600182019050919050565b610e2b81610dd0565b82525050565b6000602082019050610e466000830184610e22565b92915050565b600081519050919050565b600082825260208201905092915050565b60005b83811015610e86578082015181840152602081019050610e6b565b83811115610e95576000848401525b50505050565b6000601f19601f8301169050919050565b6000610eb782610e4c565b610ec18185610e57565b9350610ed1818560208601610e68565b610eda81610e9b565b840191505092915050565b60006020820190508181036000830152610eff8184610eac565b905092915050565b600081519050919050565b600082825260208201905092915050565b6000819050602082019050919050565b610f3c81610dd0565b82525050565b6000610f4e8383610f33565b60208301905092915050565b6000602082019050919050565b6000610f7282610f07565b610f7c8185610f12565b9350610f8783610f23565b8060005b83811015610fb8578151610f9f8882610f42565b9750610faa83610f5a565b925050600181019050610f8b565b5085935050505092915050565b60006040820190508181036000830152610fdf8185610f67565b90508181036020830152610ff38184610f67565b90509392505050565b600080fd5b600073ffffffffffffffffffffffffffffffffffffffff82169050919050565b600061102c82611001565b9050919050565b61103c81611021565b811461104757600080fd5b50565b60008135905061105981611033565b92915050565b60006020828403121561107557611074610ffc565b5b60006110838482850161104a565b91505092915050565b600061109782611001565b9050919050565b6110a78161108c565b82525050565b60006020820190506110c2600083018461109e565b92915050565b6110d181611021565b82525050565b60006020820190506110ec60008301846110c8565b92915050565b6110fb8161108c565b811461110657600080fd5b50565b600081359050611118816110f2565b92915050565b60006020828403121561113457611133610ffc565b5b600061114284828501611109565b91505092915050565b600061115682610dd0565b915061116183610dd0565b9250827fffffffffffffffffffffffffffffffffffffffffffffffffffffffffffffffff0382111561119657611195610da1565b5b828201905092915050565b7f4e487b7100000000000000000000000000000000000000000000000000000000600052602260045260246000fd5b600060028204905060018216806111e857607f821691505b6020821081036111fb576111fa6111a1565b5b50919050565b7f4e487b7100000000000000000000000000000000000000000000000000000000600052604160045260246000fd5b7f4e487b7100000000000000000000000000000000000000000000000000000000600052603260045260246000fd5b7f4f776e61626c653a2063616c6c6572206973206e6f7420746865206f776e6572600082015250565b6000611295602083610e57565b91506112a08261125f565b602082019050919050565b600060208201905081810360008301526112c481611288565b9050919050565b7f4f776e61626c653a206e6577206f776e657220697320746865207a65726f206160008201527f6464726573730000000000000000000000000000000000000000000000000000602082015250565b6000611327602683610e57565b9150611332826112cb565b604082019050919050565b600060208201905081810360008301526113568161131a565b905091905056fea264697066735822122097cccc4ca10d3a27802d4c0dce18258262d2c1d7378f9f6c28b9ba1c1c3d1dc464736f6c634300080d0033",
  "immutableReferences": {},
  "source": "// SPDX-License-Identifier: MIT\npragma solidity >=0.4.22 <0.9.0;\n\nimport \"@openzeppelin/contracts/access/Ownable.sol\";\nimport \"@openzeppelin/contracts/utils/math/SafeMath.sol\";\n\ncontract Fundraiser is Ownable {\n  using SafeMath for uint256;\n\n  string public name;\n  string public website;\n  string public imageUrl;\n  string public  description;\n  uint256 public totalDonations;\n  uint256 public donationsCount;\n\n  address payable public beneficiary;\n  address public custodian;\n\n  struct Donation {\n    uint256 value;\n    uint256 date;\n  }\n\n  mapping(address => Donation[]) private _donations;\n\n  event DonationReceived(address indexed donor, uint256 value);\n\n  event Withdraw(uint256 amount);\n\n  constructor(\n    string memory _name,\n    string memory _website,\n    string memory _imageUrl,\n    string memory _description,\n    address payable _beneficiary,\n    address _custodian\n  ) {\n    name = _name;\n    website = _website;\n    imageUrl = _imageUrl;\n    description = _description;\n    beneficiary = _beneficiary;\n    _transferOwnership(_custodian);\n  }\n\n  function setBeneficiary(address payable _beneficiary) public onlyOwner {\n    beneficiary = _beneficiary;\n  }\n\n  function myDonationsCount() public view returns (uint256) {\n    return _donations[msg.sender].length;\n  }\n\n  function donate() public payable {\n    Donation memory donation = Donation({\n      value: msg.value,\n      date: block.timestamp\n    });\n\n    _donations[msg.sender].push(donation);\n\n    totalDonations = totalDonations.add(msg.value);\n    donationsCount++;\n\n    emit DonationReceived(msg.sender, msg.value);\n  }\n\n  function myDonations() public view returns(uint256[] memory values, uint256[] memory dates) {\n    uint256 count = myDonationsCount();\n    values = new uint256[](count);\n    dates = new uint256[](count);\n\n    for (uint256 i = 0; i < count; i++) {\n      Donation storage donation = _donations[msg.sender][i];\n      values[i] = donation.value;\n      dates[i] = donation.date;\n    }\n\n    return (values, dates);\n  }\n\n  function withdraw() public onlyOwner {\n    uint256 balance = address(this).balance;\n    beneficiary.transfer(balance);\n\n    emit Withdraw(balance);\n  }\n\n  fallback () external payable {\n    totalDonations = totalDonations.add(msg.value);\n    donationsCount++;\n  }\n\n  receive () external payable {\n    totalDonations = totalDonations.add(msg.value);\n    donationsCount++;\n  }\n}\n",
  "sourcePath": "/Users/jc/Documents/code/developero/solidity/fundraiser/contracts/Fundraiser.sol",
  "compiler": {
    "name": "solc",
    "version": "0.8.13+commit.abaa5c0e.Emscripten.clang"
  },
  "schemaVersion": "3.4.7",
  "updatedAt": "2022-04-28T00:47:47.784Z",
  "devdoc": {
    "kind": "dev",
    "methods": {
      "owner()": {
        "details": "Returns the address of the current owner."
      },
      "renounceOwnership()": {
        "details": "Leaves the contract without owner. It will not be possible to call `onlyOwner` functions anymore. Can only be called by the current owner. NOTE: Renouncing ownership will leave the contract without an owner, thereby removing any functionality that is only available to the owner."
      },
      "transferOwnership(address)": {
        "details": "Transfers ownership of the contract to a new account (`newOwner`). Can only be called by the current owner."
      }
    },
    "version": 1
  },
  "userdoc": {
    "kind": "user",
    "methods": {},
    "version": 1
  }
}